{
  "contractName": "VoteXot",
  "abi": [
    {
      "constant": true,
      "inputs": [],
      "name": "minimumToPropose",
      "outputs": [
        {
          "name": "",
          "type": "uint256"
        }
      ],
      "payable": false,
      "stateMutability": "view",
      "type": "function"
    },
    {
      "constant": true,
      "inputs": [],
      "name": "xotToken",
      "outputs": [
        {
          "name": "",
          "type": "address"
        }
      ],
      "payable": false,
      "stateMutability": "view",
      "type": "function"
    },
    {
      "constant": true,
      "inputs": [],
      "name": "leader",
      "outputs": [
        {
          "name": "",
          "type": "address"
        }
      ],
      "payable": false,
      "stateMutability": "view",
      "type": "function"
    },
    {
      "constant": true,
      "inputs": [],
      "name": "proposedVotes",
      "outputs": [
        {
          "name": "",
          "type": "uint256"
        }
      ],
      "payable": false,
      "stateMutability": "view",
      "type": "function"
    },
    {
      "constant": true,
      "inputs": [],
      "name": "canProposeItself",
      "outputs": [
        {
          "name": "",
          "type": "bool"
        }
      ],
      "payable": false,
      "stateMutability": "view",
      "type": "function"
    },
    {
      "constant": true,
      "inputs": [
        {
          "name": "",
          "type": "address"
        }
      ],
      "name": "proposed",
      "outputs": [
        {
          "name": "",
          "type": "bool"
        }
      ],
      "payable": false,
      "stateMutability": "view",
      "type": "function"
    },
    {
      "constant": true,
      "inputs": [
        {
          "name": "",
          "type": "address"
        }
      ],
      "name": "votes",
      "outputs": [
        {
          "name": "",
          "type": "uint256"
        }
      ],
      "payable": false,
      "stateMutability": "view",
      "type": "function"
    },
    {
      "constant": true,
      "inputs": [],
      "name": "minimumToVote",
      "outputs": [
        {
          "name": "",
          "type": "uint256"
        }
      ],
      "payable": false,
      "stateMutability": "view",
      "type": "function"
    },
    {
      "inputs": [
        {
          "name": "_xotToken",
          "type": "address"
        },
        {
          "name": "_proposedVotes",
          "type": "uint256"
        }
      ],
      "payable": false,
      "stateMutability": "nonpayable",
      "type": "constructor"
    },
    {
      "anonymous": false,
      "inputs": [
        {
          "indexed": false,
          "name": "leader",
          "type": "address"
        }
      ],
      "name": "Leader",
      "type": "event"
    },
    {
      "constant": false,
      "inputs": [
        {
          "name": "_proposed",
          "type": "address"
        }
      ],
      "name": "propose",
      "outputs": [],
      "payable": false,
      "stateMutability": "nonpayable",
      "type": "function"
    },
    {
      "constant": false,
      "inputs": [
        {
          "name": "_newLeader",
          "type": "address"
        }
      ],
      "name": "vote",
      "outputs": [],
      "payable": false,
      "stateMutability": "nonpayable",
      "type": "function"
    },
    {
      "constant": false,
      "inputs": [
        {
          "name": "_value",
          "type": "bool"
        }
      ],
      "name": "proposeItself",
      "outputs": [],
      "payable": false,
      "stateMutability": "nonpayable",
      "type": "function"
    }
  ],
  "bytecode": "0x60806040526000600260006101000a81548160ff02191690831515021790555034801561002b57600080fd5b5060405160408061154c8339810180604052810190808051906020019092919080519060200190929190505050600073ffffffffffffffffffffffffffffffffffffffff168273ffffffffffffffffffffffffffffffffffffffff16141515156100fd576040517f08c379a00000000000000000000000000000000000000000000000000000000081526004018080602001828103825260188152602001807f546f6b656e2063616e742062652061646472657373283029000000000000000081525060200191505060405180910390fd5b60008111151561010c57600080fd5b33600260016101000a81548173ffffffffffffffffffffffffffffffffffffffff021916908373ffffffffffffffffffffffffffffffffffffffff160217905550816000806101000a81548173ffffffffffffffffffffffffffffffffffffffff021916908373ffffffffffffffffffffffffffffffffffffffff1602179055508060018190555050506113a7806101a56000396000f3006080604052600436106100af576000357c0100000000000000000000000000000000000000000000000000000000900463ffffffff16806301267951146100b4578063395fb7fb146100f75780633e70072b1461012257806340eedabb146101795780636dd7d8ea146101d0578063726c95b814610213578063b2a19dbf1461023e578063b55037101461026d578063b5e18ce41461029c578063d8bff5a5146102f7578063d9cbf3331461034e575b600080fd5b3480156100c057600080fd5b506100f5600480360381019080803573ffffffffffffffffffffffffffffffffffffffff169060200190929190505050610379565b005b34801561010357600080fd5b5061010c6109fe565b6040518082815260200191505060405180910390f35b34801561012e57600080fd5b50610137610a0b565b604051808273ffffffffffffffffffffffffffffffffffffffff1673ffffffffffffffffffffffffffffffffffffffff16815260200191505060405180910390f35b34801561018557600080fd5b5061018e610a30565b604051808273ffffffffffffffffffffffffffffffffffffffff1673ffffffffffffffffffffffffffffffffffffffff16815260200191505060405180910390f35b3480156101dc57600080fd5b50610211600480360381019080803573ffffffffffffffffffffffffffffffffffffffff169060200190929190505050610a56565b005b34801561021f57600080fd5b50610228611288565b6040518082815260200191505060405180910390f35b34801561024a57600080fd5b5061026b60048036038101908080351515906020019092919050505061128e565b005b34801561027957600080fd5b50610282611307565b604051808215151515815260200191505060405180910390f35b3480156102a857600080fd5b506102dd600480360381019080803573ffffffffffffffffffffffffffffffffffffffff16906020019092919050505061131a565b604051808215151515815260200191505060405180910390f35b34801561030357600080fd5b50610338600480360381019080803573ffffffffffffffffffffffffffffffffffffffff16906020019092919050505061133a565b6040518082815260200191505060405180910390f35b34801561035a57600080fd5b50610363611352565b6040518082815260200191505060405180910390f35b68056bc75e2d63100000806000809054906101000a900473ffffffffffffffffffffffffffffffffffffffff1673ffffffffffffffffffffffffffffffffffffffff166370a08231336040518263ffffffff167c0100000000000000000000000000000000000000000000000000000000028152600401808273ffffffffffffffffffffffffffffffffffffffff1673ffffffffffffffffffffffffffffffffffffffff168152602001915050602060405180830381600087803b15801561044057600080fd5b505af1158015610454573d6000803e3d6000fd5b505050506040513d602081101561046a57600080fd5b81019080805190602001909291905050501115156104f0576040517f08c379a00000000000000000000000000000000000000000000000000000000081526004018080602001828103825260128152602001807f62616c616e6365206e6f7420656e6f756768000000000000000000000000000081525060200191505060405180910390fd5b806000809054906101000a900473ffffffffffffffffffffffffffffffffffffffff1673ffffffffffffffffffffffffffffffffffffffff1663dd62ed3e33306040518363ffffffff167c0100000000000000000000000000000000000000000000000000000000028152600401808373ffffffffffffffffffffffffffffffffffffffff1673ffffffffffffffffffffffffffffffffffffffff1681526020018273ffffffffffffffffffffffffffffffffffffffff1673ffffffffffffffffffffffffffffffffffffffff16815260200192505050602060405180830381600087803b1580156105e157600080fd5b505af11580156105f5573d6000803e3d6000fd5b505050506040513d602081101561060b57600080fd5b810190808051906020019092919050505010151515610692576040517f08c379a00000000000000000000000000000000000000000000000000000000081526004018080602001828103825260128152602001807f616c6c6f776564206e6f7420656e6f756768000000000000000000000000000081525060200191505060405180910390fd5b600073ffffffffffffffffffffffffffffffffffffffff168273ffffffffffffffffffffffffffffffffffffffff1614151515610737576040517f08c379a000000000000000000000000000000000000000000000000000000000815260040180806020018281038252601c8152602001807f70726f706f7365642063616e6e6f74206265206164647265737320300000000081525060200191505060405180910390fd5b600260009054906101000a900460ff1615156107f2573373ffffffffffffffffffffffffffffffffffffffff168273ffffffffffffffffffffffffffffffffffffffff16141515156107f1576040517f08c379a00000000000000000000000000000000000000000000000000000000081526004018080602001828103825260208152602001807f73656e6465722063616e6e6f742062652070726f706f73656420697473656c6681525060200191505060405180910390fd5b5b6000809054906101000a900473ffffffffffffffffffffffffffffffffffffffff1673ffffffffffffffffffffffffffffffffffffffff166323b872dd333068056bc75e2d631000006040518463ffffffff167c0100000000000000000000000000000000000000000000000000000000028152600401808473ffffffffffffffffffffffffffffffffffffffff1673ffffffffffffffffffffffffffffffffffffffff1681526020018373ffffffffffffffffffffffffffffffffffffffff1673ffffffffffffffffffffffffffffffffffffffff1681526020018281526020019350505050602060405180830381600087803b1580156108f357600080fd5b505af1158015610907573d6000803e3d6000fd5b505050506040513d602081101561091d57600080fd5b810190808051906020019092919050505015156109a2576040517f08c379a000000000000000000000000000000000000000000000000000000000815260040180806020018281038252601a8152602001807f7472616e736665722066726f6d206469646e742068617070656e00000000000081525060200191505060405180910390fd5b6001600360008473ffffffffffffffffffffffffffffffffffffffff1673ffffffffffffffffffffffffffffffffffffffff16815260200190815260200160002060006101000a81548160ff0219169083151502179055505050565b68056bc75e2d6310000081565b6000809054906101000a900473ffffffffffffffffffffffffffffffffffffffff1681565b600260019054906101000a900473ffffffffffffffffffffffffffffffffffffffff1681565b6801158e460913d00000806000809054906101000a900473ffffffffffffffffffffffffffffffffffffffff1673ffffffffffffffffffffffffffffffffffffffff166370a08231336040518263ffffffff167c0100000000000000000000000000000000000000000000000000000000028152600401808273ffffffffffffffffffffffffffffffffffffffff1673ffffffffffffffffffffffffffffffffffffffff168152602001915050602060405180830381600087803b158015610b1d57600080fd5b505af1158015610b31573d6000803e3d6000fd5b505050506040513d6020811015610b4757600080fd5b8101908080519060200190929190505050111515610bcd576040517f08c379a00000000000000000000000000000000000000000000000000000000081526004018080602001828103825260128152602001807f62616c616e6365206e6f7420656e6f756768000000000000000000000000000081525060200191505060405180910390fd5b806000809054906101000a900473ffffffffffffffffffffffffffffffffffffffff1673ffffffffffffffffffffffffffffffffffffffff1663dd62ed3e33306040518363ffffffff167c0100000000000000000000000000000000000000000000000000000000028152600401808373ffffffffffffffffffffffffffffffffffffffff1673ffffffffffffffffffffffffffffffffffffffff1681526020018273ffffffffffffffffffffffffffffffffffffffff1673ffffffffffffffffffffffffffffffffffffffff16815260200192505050602060405180830381600087803b158015610cbe57600080fd5b505af1158015610cd2573d6000803e3d6000fd5b505050506040513d6020811015610ce857600080fd5b810190808051906020019092919050505010151515610d6f576040517f08c379a00000000000000000000000000000000000000000000000000000000081526004018080602001828103825260128152602001807f616c6c6f776564206e6f7420656e6f756768000000000000000000000000000081525060200191505060405180910390fd5b8173ffffffffffffffffffffffffffffffffffffffff163373ffffffffffffffffffffffffffffffffffffffff1614151515610e13576040517f08c379a000000000000000000000000000000000000000000000000000000000815260040180806020018281038252601b8152602001807f557365722063616e6e6f7420766f746520666f7220697473656c66000000000081525060200191505060405180910390fd5b600360008373ffffffffffffffffffffffffffffffffffffffff1673ffffffffffffffffffffffffffffffffffffffff16815260200190815260200160002060009054906101000a900460ff161515610ed4576040517f08c379a00000000000000000000000000000000000000000000000000000000081526004018080602001828103825260158152602001807f766f746564206973206e6f742070726f706f736564000000000000000000000081525060200191505060405180910390fd5b6000809054906101000a900473ffffffffffffffffffffffffffffffffffffffff1673ffffffffffffffffffffffffffffffffffffffff166323b872dd33306801158e460913d000006040518463ffffffff167c0100000000000000000000000000000000000000000000000000000000028152600401808473ffffffffffffffffffffffffffffffffffffffff1673ffffffffffffffffffffffffffffffffffffffff1681526020018373ffffffffffffffffffffffffffffffffffffffff1673ffffffffffffffffffffffffffffffffffffffff1681526020018281526020019350505050602060405180830381600087803b158015610fd557600080fd5b505af1158015610fe9573d6000803e3d6000fd5b505050506040513d6020811015610fff57600080fd5b81019080805190602001909291905050501515611084576040517f08c379a000000000000000000000000000000000000000000000000000000000815260040180806020018281038252601a8152602001807f7472616e736665722066726f6d206469646e742068617070656e00000000000081525060200191505060405180910390fd5b6110d76001600460008573ffffffffffffffffffffffffffffffffffffffff1673ffffffffffffffffffffffffffffffffffffffff1681526020019081526020016000205461135f90919063ffffffff16565b600460008473ffffffffffffffffffffffffffffffffffffffff1673ffffffffffffffffffffffffffffffffffffffff16815260200190815260200160002081905550600154600460008473ffffffffffffffffffffffffffffffffffffffff1673ffffffffffffffffffffffffffffffffffffffff16815260200190815260200160002054101515611284576111b76001600460008573ffffffffffffffffffffffffffffffffffffffff1673ffffffffffffffffffffffffffffffffffffffff1681526020019081526020016000205461135f90919063ffffffff16565b60018190555081600260016101000a81548173ffffffffffffffffffffffffffffffffffffffff021916908373ffffffffffffffffffffffffffffffffffffffff1602179055507fbadb80a6d794e6f0f61b903088acf2cfb91eb3ef04bec1674540318a8aba94ec600260019054906101000a900473ffffffffffffffffffffffffffffffffffffffff16604051808273ffffffffffffffffffffffffffffffffffffffff1673ffffffffffffffffffffffffffffffffffffffff16815260200191505060405180910390a15b5050565b60015481565b600260019054906101000a900473ffffffffffffffffffffffffffffffffffffffff1673ffffffffffffffffffffffffffffffffffffffff163373ffffffffffffffffffffffffffffffffffffffff161415156112ea57600080fd5b80600260006101000a81548160ff02191690831515021790555050565b600260009054906101000a900460ff1681565b60036020528060005260406000206000915054906101000a900460ff1681565b60046020528060005260406000206000915090505481565b6801158e460913d0000081565b6000818301905082811015151561137257fe5b809050929150505600a165627a7a72305820fce732fb15bcaeabaecaaec0463d1f121f1794ccf31c37858ea64b05033fd3030029",
  "source": "pragma solidity ^0.4.24;\r\n\r\nimport \"./IVoteXot.sol\";\r\nimport \"../xot_token/ERC20.sol\";\r\nimport \"../utils/SafeMath.sol\";\r\n\r\n/**\r\n* @title VoteXot\r\n* @dev Leader proposal and rules setting\r\n*/\r\n\r\ncontract VoteXot is IVoteXot {\r\n    using SafeMath for uint256;\r\n\r\n    ERC20 public xotToken;\r\n\r\n    /**\r\n    * @dev uint that defines 20 XOTs\r\n    */\r\n    uint256 public constant minimumToVote = 20*(10**18);\r\n     /**\r\n    * @dev uint that defines 100 XOTs\r\n    */\r\n    uint256 public constant minimumToPropose = 100*(10**18);\r\n\r\n    uint256 public proposedVotes;\r\n\r\n    bool public canProposeItself = false;\r\n\r\n    address public leader;\r\n\r\n    /**\r\n    * @dev mapping of proposed leaders\r\n    * @param address The address of the proposed leader\r\n    * @param bool True if proposed \r\n    */\r\n    mapping(address => bool) public proposed;\r\n\r\n    /**\r\n    * @dev mapping of votes\r\n    * @param address The address of the proposed leader\r\n    * @param uint256 The number of votes \r\n    */\r\n    mapping(address => uint256) public votes;   \r\n\r\n    /**\r\n    * @dev Throws if called by any account other than the leader.\r\n    */\r\n    modifier onlyLeader() {\r\n        require(msg.sender == leader);\r\n        _;\r\n    }\r\n\r\n     /**\r\n    * @dev Throws if allowance is not set by equal or greater of minimum\r\n    * @param _minimum value to be allowed to the contract to spend\r\n    */\r\n    modifier hasAllowed(uint256 _minimum) {\r\n        require(xotToken.balanceOf(msg.sender) > _minimum, \"balance not enough\");\r\n        require(xotToken.allowance(msg.sender, address(this)) >= _minimum, \"allowed not enough\");\r\n        _;\r\n    }\r\n\r\n\r\n    /**\r\n    * @dev constructor sets the msg.sender as the leader \r\n    * @param _xotToken ERC20 Token to be set on the voting\r\n    * @param _proposedVotes number of votes needed to be leader\r\n    */\r\n    constructor(ERC20 _xotToken, uint256 _proposedVotes) public {\r\n        require(_xotToken != address(0), \"Token cant be address(0)\");\r\n        require(_proposedVotes > 0);\r\n        leader = msg.sender;\r\n        xotToken = _xotToken;\r\n        proposedVotes = _proposedVotes;\r\n    }\r\n\r\n    /**\r\n    * @dev propose a new leader,  can be called by anyone that has \r\n    * allowed the contract at least 100 XOT, then the contract will call \r\n    * transferFrom function to tranfer the tokens on its behalf and place\r\n    * the proposal on behalf of _proposed\r\n    * @param _proposed address of the new proposed leader\r\n    */\r\n    function propose(address _proposed) external hasAllowed(minimumToPropose) {\r\n        require(_proposed != address(0), \"proposed cannot be address 0\");\r\n        if(!canProposeItself) {\r\n            require(_proposed != msg.sender, \"sender cannot be proposed itself\");\r\n        }\r\n        require(xotToken.transferFrom(msg.sender, address(this), minimumToPropose), \"transfer from didnt happen\");\r\n        proposed[_proposed] = true;\r\n        \r\n    }\r\n\r\n    /**\r\n    * @dev vote can be called by anyone that has allowed the\r\n    * contract at least 20 XOT, the voted must be proposed first\r\n    *, then the contract will call  transferFrom function to tranfer \r\n    * the tokens on its behalf  and place the vote. If the proposed \r\n    * leader achieves the numberOfProposeddVotes, the _newLeader\r\n    * will become the new leader, and we will add one to number of proposed \r\n    * votes, so the next leader will become leader after reaching\r\n    * the number of votes the actual leader has\r\n    * @param _newLeader address of the voted\r\n    */\r\n    function vote(address _newLeader) external hasAllowed(minimumToVote) {\r\n        require(msg.sender != _newLeader, \"User cannot vote for itself\");\r\n        require(proposed[_newLeader], \"voted is not proposed\");\r\n        require(xotToken.transferFrom(msg.sender, address(this), minimumToVote), \"transfer from didnt happen\");\r\n        votes[_newLeader] = votes[_newLeader].add(1);\r\n        if(votes[_newLeader] >= proposedVotes) {\r\n            proposedVotes = votes[_newLeader].add(1);\r\n            leader = _newLeader;\r\n            emit Leader(leader);\r\n        }\r\n    }\r\n\r\n    /** \r\n    * @dev only the leader can change the rule \r\n    * @param _value if leader can be proposed itself\r\n    */\r\n    function proposeItself(bool _value) external onlyLeader {\r\n        canProposeItself = _value;\r\n    }\r\n\r\n\r\n}",
  "sourcePath": "E:\\Ethereum\\XOT\\contracts\\voting\\VoteXot.sol",
  "compiler": {
    "name": "solc",
    "version": "0.4.24+commit.e67f0147.Emscripten.clang"
  },
  "schemaVersion": "2.0.1",
  "updatedAt": "2018-09-26T16:15:25.887Z"
}