{
  "contractName": "VoteXot",
  "abi": [
    {
      "constant": true,
      "inputs": [],
      "name": "xotToken",
      "outputs": [
        {
          "name": "",
          "type": "address"
        }
      ],
      "payable": false,
      "stateMutability": "view",
      "type": "function"
    },
    {
      "constant": true,
      "inputs": [],
      "name": "leader",
      "outputs": [
        {
          "name": "",
          "type": "address"
        }
      ],
      "payable": false,
      "stateMutability": "view",
      "type": "function"
    },
    {
      "constant": true,
      "inputs": [
        {
          "name": "",
          "type": "address"
        }
      ],
      "name": "votes",
      "outputs": [
        {
          "name": "",
          "type": "uint256"
        }
      ],
      "payable": false,
      "stateMutability": "view",
      "type": "function"
    },
    {
      "constant": true,
      "inputs": [],
      "name": "minimumToVote",
      "outputs": [
        {
          "name": "",
          "type": "uint256"
        }
      ],
      "payable": false,
      "stateMutability": "view",
      "type": "function"
    },
    {
      "constant": true,
      "inputs": [],
      "name": "purposedVotes",
      "outputs": [
        {
          "name": "",
          "type": "uint256"
        }
      ],
      "payable": false,
      "stateMutability": "view",
      "type": "function"
    },
    {
      "inputs": [
        {
          "name": "_xotToken",
          "type": "address"
        },
        {
          "name": "_purposedVotes",
          "type": "uint256"
        }
      ],
      "payable": false,
      "stateMutability": "nonpayable",
      "type": "constructor"
    },
    {
      "constant": false,
      "inputs": [
        {
          "name": "_newLeader",
          "type": "address"
        }
      ],
      "name": "vote",
      "outputs": [],
      "payable": false,
      "stateMutability": "nonpayable",
      "type": "function"
    }
  ],
  "bytecode": "0x608060405234801561001057600080fd5b50604051604080610b428339810180604052810190808051906020019092919080519060200190929190505050600073ffffffffffffffffffffffffffffffffffffffff168273ffffffffffffffffffffffffffffffffffffffff16141515156100e2576040517f08c379a00000000000000000000000000000000000000000000000000000000081526004018080602001828103825260188152602001807f546f6b656e2063616e742062652061646472657373283029000000000000000081525060200191505060405180910390fd5b6000811115156100f157600080fd5b816000806101000a81548173ffffffffffffffffffffffffffffffffffffffff021916908373ffffffffffffffffffffffffffffffffffffffff1602179055508060018190555050506109f9806101496000396000f300608060405260043610610078576000357c0100000000000000000000000000000000000000000000000000000000900463ffffffff1680633e70072b1461007d57806340eedabb146100d45780636dd7d8ea1461012b578063d8bff5a51461016e578063d9cbf333146101c5578063de9153a6146101f0575b600080fd5b34801561008957600080fd5b5061009261021b565b604051808273ffffffffffffffffffffffffffffffffffffffff1673ffffffffffffffffffffffffffffffffffffffff16815260200191505060405180910390f35b3480156100e057600080fd5b506100e9610240565b604051808273ffffffffffffffffffffffffffffffffffffffff1673ffffffffffffffffffffffffffffffffffffffff16815260200191505060405180910390f35b34801561013757600080fd5b5061016c600480360381019080803573ffffffffffffffffffffffffffffffffffffffff169060200190929190505050610266565b005b34801561017a57600080fd5b506101af600480360381019080803573ffffffffffffffffffffffffffffffffffffffff169060200190929190505050610986565b6040518082815260200191505060405180910390f35b3480156101d157600080fd5b506101da61099e565b6040518082815260200191505060405180910390f35b3480156101fc57600080fd5b506102056109ab565b6040518082815260200191505060405180910390f35b6000809054906101000a900473ffffffffffffffffffffffffffffffffffffffff1681565b600260009054906101000a900473ffffffffffffffffffffffffffffffffffffffff1681565b8073ffffffffffffffffffffffffffffffffffffffff163373ffffffffffffffffffffffffffffffffffffffff161415151561030a576040517f08c379a000000000000000000000000000000000000000000000000000000000815260040180806020018281038252601b8152602001807f557365722063616e6e6f7420766f746520666f7220697473656c66000000000081525060200191505060405180910390fd5b68056bc75e2d631000006000809054906101000a900473ffffffffffffffffffffffffffffffffffffffff1673ffffffffffffffffffffffffffffffffffffffff166370a08231336040518263ffffffff167c0100000000000000000000000000000000000000000000000000000000028152600401808273ffffffffffffffffffffffffffffffffffffffff1673ffffffffffffffffffffffffffffffffffffffff168152602001915050602060405180830381600087803b1580156103d057600080fd5b505af11580156103e4573d6000803e3d6000fd5b505050506040513d60208110156103fa57600080fd5b81019080805190602001909291905050501115156104a6576040517f08c379a00000000000000000000000000000000000000000000000000000000081526004018080602001828103825260278152602001807f557365722063616e6e6f7420766f74652077697468206c657373207468616e2081526020017f31303020584f540000000000000000000000000000000000000000000000000081525060400191505060405180910390fd5b8073ffffffffffffffffffffffffffffffffffffffff16600260009054906101000a900473ffffffffffffffffffffffffffffffffffffffff1673ffffffffffffffffffffffffffffffffffffffff1614151515610592576040517f08c379a00000000000000000000000000000000000000000000000000000000081526004018080602001828103825260238152602001807f50726f706f736564206c656164657220697320616c72656164792061206c656181526020017f646572000000000000000000000000000000000000000000000000000000000081525060400191505060405180910390fd5b68056bc75e2d631000006000809054906101000a900473ffffffffffffffffffffffffffffffffffffffff1673ffffffffffffffffffffffffffffffffffffffff1663dd62ed3e33306040518363ffffffff167c0100000000000000000000000000000000000000000000000000000000028152600401808373ffffffffffffffffffffffffffffffffffffffff1673ffffffffffffffffffffffffffffffffffffffff1681526020018273ffffffffffffffffffffffffffffffffffffffff1673ffffffffffffffffffffffffffffffffffffffff16815260200192505050602060405180830381600087803b15801561068c57600080fd5b505af11580156106a0573d6000803e3d6000fd5b505050506040513d60208110156106b657600080fd5b81019080805190602001909291905050501015151561073d576040517f08c379a000000000000000000000000000000000000000000000000000000000815260040180806020018281038252601d8152602001807f757361657220616c6c6f77616e6365206973206e6f7420656e6f75676800000081525060200191505060405180910390fd5b6000809054906101000a900473ffffffffffffffffffffffffffffffffffffffff1673ffffffffffffffffffffffffffffffffffffffff166323b872dd333068056bc75e2d631000006040518463ffffffff167c0100000000000000000000000000000000000000000000000000000000028152600401808473ffffffffffffffffffffffffffffffffffffffff1673ffffffffffffffffffffffffffffffffffffffff1681526020018373ffffffffffffffffffffffffffffffffffffffff1673ffffffffffffffffffffffffffffffffffffffff1681526020018281526020019350505050602060405180830381600087803b15801561083e57600080fd5b505af1158015610852573d6000803e3d6000fd5b505050506040513d602081101561086857600080fd5b810190808051906020019092919050505015156108ed576040517f08c379a000000000000000000000000000000000000000000000000000000000815260040180806020018281038252601a8152602001807f7472616e736665722066726f6d206469646e742068617070656e00000000000081525060200191505060405180910390fd5b6109406001600360008473ffffffffffffffffffffffffffffffffffffffff1673ffffffffffffffffffffffffffffffffffffffff168152602001908152602001600020546109b190919063ffffffff16565b600360008373ffffffffffffffffffffffffffffffffffffffff1673ffffffffffffffffffffffffffffffffffffffff1681526020019081526020016000208190555050565b60036020528060005260406000206000915090505481565b68056bc75e2d6310000081565b60015481565b600081830190508281101515156109c457fe5b809050929150505600a165627a7a72305820b8e73d2f256b8c83791cc37f257f1d2c4a926c5572175410ec6f00a1e76881ad0029",
  "source": "pragma solidity ^0.4.24;\r\n\r\nimport \"./IVoteXot.sol\";\r\nimport \"../xot_token/ERC20.sol\";\r\nimport \"../utils/SafeMath.sol\";\r\n\r\n/**\r\n* @title VoteXot\r\n* @dev Leader proposal and rules setting\r\n*/\r\n\r\ncontract VoteXot is IVoteXot {\r\n    using SafeMath for uint256;\r\n\r\n    ERC20 public xotToken;\r\n\r\n    uint256 public constant minimumToVote = 100*(10**18);\r\n    uint256 public purposedVotes;\r\n\r\n    address public leader;\r\n\r\n    mapping(address => uint256) public votes;   \r\n\r\n\r\n    constructor(ERC20 _xotToken, uint256 _purposedVotes) public {\r\n        require(_xotToken != address(0), \"Token cant be address(0)\");\r\n        require(_purposedVotes > 0);\r\n        xotToken = _xotToken;\r\n        purposedVotes = _purposedVotes;\r\n    }\r\n\r\n    function vote(address _newLeader) external {\r\n        require(msg.sender != _newLeader, \"User cannot vote for itself\");\r\n        require(xotToken.balanceOf(msg.sender) > minimumToVote, \"User cannot vote with less than 100 XOT\");\r\n        require(leader != _newLeader, \"Proposed leader is already a leader\");\r\n        require(xotToken.allowance(msg.sender, address(this)) >= minimumToVote, \"usaer allowance is not enough\");\r\n        require(xotToken.transferFrom(msg.sender, address(this), minimumToVote), \"transfer from didnt happen\");\r\n        votes[_newLeader] = votes[_newLeader].add(1);\r\n        //if(votes[_newLeader] >= )\r\n    }\r\n}",
  "sourcePath": "E:\\Ethereum\\XOT\\contracts\\voting\\VoteXot.sol",
  "compiler": {
    "name": "solc",
    "version": "0.4.24+commit.e67f0147.Emscripten.clang"
  },
  "schemaVersion": "2.0.1",
  "updatedAt": "2018-09-26T12:53:15.260Z"
}